{
  "_format": "hh-sol-artifact-1",
  "contractName": "TicketNFT",
  "sourceName": "contracts/TicketNFT.sol",
  "abi": [
    {
      "inputs": [],
      "stateMutability": "nonpayable",
      "type": "constructor"
    },
    {
      "anonymous": false,
      "inputs": [
        {
          "indexed": true,
          "internalType": "address",
          "name": "owner",
          "type": "address"
        },
        {
          "indexed": true,
          "internalType": "address",
          "name": "approved",
          "type": "address"
        },
        {
          "indexed": true,
          "internalType": "uint256",
          "name": "tokenId",
          "type": "uint256"
        }
      ],
      "name": "Approval",
      "type": "event"
    },
    {
      "anonymous": false,
      "inputs": [
        {
          "indexed": true,
          "internalType": "address",
          "name": "owner",
          "type": "address"
        },
        {
          "indexed": true,
          "internalType": "address",
          "name": "operator",
          "type": "address"
        },
        {
          "indexed": false,
          "internalType": "bool",
          "name": "approved",
          "type": "bool"
        }
      ],
      "name": "ApprovalForAll",
      "type": "event"
    },
    {
      "anonymous": false,
      "inputs": [
        {
          "indexed": true,
          "internalType": "address",
          "name": "previousOwner",
          "type": "address"
        },
        {
          "indexed": true,
          "internalType": "address",
          "name": "newOwner",
          "type": "address"
        }
      ],
      "name": "OwnershipTransferred",
      "type": "event"
    },
    {
      "anonymous": false,
      "inputs": [
        {
          "indexed": false,
          "internalType": "uint256",
          "name": "tokenId",
          "type": "uint256"
        },
        {
          "indexed": false,
          "internalType": "uint256",
          "name": "price",
          "type": "uint256"
        }
      ],
      "name": "TicketListed",
      "type": "event"
    },
    {
      "anonymous": false,
      "inputs": [
        {
          "indexed": false,
          "internalType": "address",
          "name": "buyer",
          "type": "address"
        },
        {
          "indexed": false,
          "internalType": "uint256",
          "name": "tokenId",
          "type": "uint256"
        },
        {
          "indexed": false,
          "internalType": "uint256",
          "name": "price",
          "type": "uint256"
        }
      ],
      "name": "TicketMinted",
      "type": "event"
    },
    {
      "anonymous": false,
      "inputs": [
        {
          "indexed": false,
          "internalType": "uint256",
          "name": "tokenId",
          "type": "uint256"
        },
        {
          "indexed": false,
          "internalType": "address",
          "name": "from",
          "type": "address"
        },
        {
          "indexed": false,
          "internalType": "address",
          "name": "to",
          "type": "address"
        },
        {
          "indexed": false,
          "internalType": "uint256",
          "name": "price",
          "type": "uint256"
        }
      ],
      "name": "TicketSold",
      "type": "event"
    },
    {
      "anonymous": false,
      "inputs": [
        {
          "indexed": false,
          "internalType": "uint256",
          "name": "tokenId",
          "type": "uint256"
        }
      ],
      "name": "TicketUsed",
      "type": "event"
    },
    {
      "anonymous": false,
      "inputs": [
        {
          "indexed": true,
          "internalType": "address",
          "name": "from",
          "type": "address"
        },
        {
          "indexed": true,
          "internalType": "address",
          "name": "to",
          "type": "address"
        },
        {
          "indexed": true,
          "internalType": "uint256",
          "name": "tokenId",
          "type": "uint256"
        }
      ],
      "name": "Transfer",
      "type": "event"
    },
    {
      "inputs": [
        {
          "internalType": "address",
          "name": "",
          "type": "address"
        },
        {
          "internalType": "uint256",
          "name": "",
          "type": "uint256"
        }
      ],
      "name": "approve",
      "outputs": [],
      "stateMutability": "pure",
      "type": "function"
    },
    {
      "inputs": [
        {
          "internalType": "address",
          "name": "owner",
          "type": "address"
        }
      ],
      "name": "balanceOf",
      "outputs": [
        {
          "internalType": "uint256",
          "name": "",
          "type": "uint256"
        }
      ],
      "stateMutability": "view",
      "type": "function"
    },
    {
      "inputs": [
        {
          "internalType": "uint256",
          "name": "tokenId",
          "type": "uint256"
        }
      ],
      "name": "buyTicket",
      "outputs": [],
      "stateMutability": "payable",
      "type": "function"
    },
    {
      "inputs": [
        {
          "internalType": "uint256",
          "name": "tokenId",
          "type": "uint256"
        }
      ],
      "name": "cancelListing",
      "outputs": [],
      "stateMutability": "nonpayable",
      "type": "function"
    },
    {
      "inputs": [
        {
          "internalType": "uint256",
          "name": "tokenId",
          "type": "uint256"
        }
      ],
      "name": "getApproved",
      "outputs": [
        {
          "internalType": "address",
          "name": "",
          "type": "address"
        }
      ],
      "stateMutability": "view",
      "type": "function"
    },
    {
      "inputs": [
        {
          "internalType": "address",
          "name": "owner",
          "type": "address"
        },
        {
          "internalType": "address",
          "name": "operator",
          "type": "address"
        }
      ],
      "name": "isApprovedForAll",
      "outputs": [
        {
          "internalType": "bool",
          "name": "",
          "type": "bool"
        }
      ],
      "stateMutability": "view",
      "type": "function"
    },
    {
      "inputs": [
        {
          "internalType": "uint256",
          "name": "tokenId",
          "type": "uint256"
        },
        {
          "internalType": "uint256",
          "name": "price",
          "type": "uint256"
        }
      ],
      "name": "listTicket",
      "outputs": [],
      "stateMutability": "nonpayable",
      "type": "function"
    },
    {
      "inputs": [],
      "name": "maxResalePercent",
      "outputs": [
        {
          "internalType": "uint256",
          "name": "",
          "type": "uint256"
        }
      ],
      "stateMutability": "view",
      "type": "function"
    },
    {
      "inputs": [],
      "name": "maxTicketsPerWallet",
      "outputs": [
        {
          "internalType": "uint256",
          "name": "",
          "type": "uint256"
        }
      ],
      "stateMutability": "view",
      "type": "function"
    },
    {
      "inputs": [],
      "name": "mintTicket",
      "outputs": [],
      "stateMutability": "payable",
      "type": "function"
    },
    {
      "inputs": [],
      "name": "name",
      "outputs": [
        {
          "internalType": "string",
          "name": "",
          "type": "string"
        }
      ],
      "stateMutability": "view",
      "type": "function"
    },
    {
      "inputs": [],
      "name": "nextTokenId",
      "outputs": [
        {
          "internalType": "uint256",
          "name": "",
          "type": "uint256"
        }
      ],
      "stateMutability": "view",
      "type": "function"
    },
    {
      "inputs": [],
      "name": "owner",
      "outputs": [
        {
          "internalType": "address",
          "name": "",
          "type": "address"
        }
      ],
      "stateMutability": "view",
      "type": "function"
    },
    {
      "inputs": [
        {
          "internalType": "uint256",
          "name": "tokenId",
          "type": "uint256"
        }
      ],
      "name": "ownerOf",
      "outputs": [
        {
          "internalType": "address",
          "name": "",
          "type": "address"
        }
      ],
      "stateMutability": "view",
      "type": "function"
    },
    {
      "inputs": [],
      "name": "renounceOwnership",
      "outputs": [],
      "stateMutability": "nonpayable",
      "type": "function"
    },
    {
      "inputs": [],
      "name": "resaleCooldown",
      "outputs": [
        {
          "internalType": "uint256",
          "name": "",
          "type": "uint256"
        }
      ],
      "stateMutability": "view",
      "type": "function"
    },
    {
      "inputs": [
        {
          "internalType": "address",
          "name": "from",
          "type": "address"
        },
        {
          "internalType": "address",
          "name": "to",
          "type": "address"
        },
        {
          "internalType": "uint256",
          "name": "tokenId",
          "type": "uint256"
        }
      ],
      "name": "safeTransferFrom",
      "outputs": [],
      "stateMutability": "nonpayable",
      "type": "function"
    },
    {
      "inputs": [
        {
          "internalType": "address",
          "name": "from",
          "type": "address"
        },
        {
          "internalType": "address",
          "name": "to",
          "type": "address"
        },
        {
          "internalType": "uint256",
          "name": "tokenId",
          "type": "uint256"
        },
        {
          "internalType": "bytes",
          "name": "data",
          "type": "bytes"
        }
      ],
      "name": "safeTransferFrom",
      "outputs": [],
      "stateMutability": "nonpayable",
      "type": "function"
    },
    {
      "inputs": [
        {
          "internalType": "uint256",
          "name": "",
          "type": "uint256"
        }
      ],
      "name": "salePrice",
      "outputs": [
        {
          "internalType": "uint256",
          "name": "",
          "type": "uint256"
        }
      ],
      "stateMutability": "view",
      "type": "function"
    },
    {
      "inputs": [
        {
          "internalType": "address",
          "name": "",
          "type": "address"
        },
        {
          "internalType": "bool",
          "name": "",
          "type": "bool"
        }
      ],
      "name": "setApprovalForAll",
      "outputs": [],
      "stateMutability": "pure",
      "type": "function"
    },
    {
      "inputs": [
        {
          "internalType": "bytes4",
          "name": "interfaceId",
          "type": "bytes4"
        }
      ],
      "name": "supportsInterface",
      "outputs": [
        {
          "internalType": "bool",
          "name": "",
          "type": "bool"
        }
      ],
      "stateMutability": "view",
      "type": "function"
    },
    {
      "inputs": [],
      "name": "symbol",
      "outputs": [
        {
          "internalType": "string",
          "name": "",
          "type": "string"
        }
      ],
      "stateMutability": "view",
      "type": "function"
    },
    {
      "inputs": [
        {
          "internalType": "uint256",
          "name": "",
          "type": "uint256"
        }
      ],
      "name": "ticketData",
      "outputs": [
        {
          "internalType": "uint256",
          "name": "originalPrice",
          "type": "uint256"
        },
        {
          "internalType": "uint256",
          "name": "purchaseTime",
          "type": "uint256"
        },
        {
          "internalType": "bool",
          "name": "used",
          "type": "bool"
        }
      ],
      "stateMutability": "view",
      "type": "function"
    },
    {
      "inputs": [
        {
          "internalType": "address",
          "name": "",
          "type": "address"
        }
      ],
      "name": "ticketsOwned",
      "outputs": [
        {
          "internalType": "uint256",
          "name": "",
          "type": "uint256"
        }
      ],
      "stateMutability": "view",
      "type": "function"
    },
    {
      "inputs": [
        {
          "internalType": "uint256",
          "name": "tokenId",
          "type": "uint256"
        }
      ],
      "name": "tokenURI",
      "outputs": [
        {
          "internalType": "string",
          "name": "",
          "type": "string"
        }
      ],
      "stateMutability": "view",
      "type": "function"
    },
    {
      "inputs": [
        {
          "internalType": "address",
          "name": "from",
          "type": "address"
        },
        {
          "internalType": "address",
          "name": "to",
          "type": "address"
        },
        {
          "internalType": "uint256",
          "name": "tokenId",
          "type": "uint256"
        }
      ],
      "name": "transferFrom",
      "outputs": [],
      "stateMutability": "nonpayable",
      "type": "function"
    },
    {
      "inputs": [
        {
          "internalType": "address",
          "name": "newOwner",
          "type": "address"
        }
      ],
      "name": "transferOwnership",
      "outputs": [],
      "stateMutability": "nonpayable",
      "type": "function"
    },
    {
      "inputs": [
        {
          "internalType": "uint256",
          "name": "tokenId",
          "type": "uint256"
        }
      ],
      "name": "validateTicket",
      "outputs": [],
      "stateMutability": "nonpayable",
      "type": "function"
    },
    {
      "inputs": [],
      "name": "withdraw",
      "outputs": [],
      "stateMutability": "nonpayable",
      "type": "function"
    }
  ],
  "bytecode": "0x6080604052600360085562015180600955606e600a553480156200002257600080fd5b506040518060400160405280600b81526020017f4576656e745469636b65740000000000000000000000000000000000000000008152506040518060400160405280600481526020017f45544b54000000000000000000000000000000000000000000000000000000008152508160009081620000a0919062000423565b508060019081620000b2919062000423565b505050620000d5620000c9620000db60201b60201c565b620000e360201b60201c565b6200050a565b600033905090565b6000600660009054906101000a900473ffffffffffffffffffffffffffffffffffffffff16905081600660006101000a81548173ffffffffffffffffffffffffffffffffffffffff021916908373ffffffffffffffffffffffffffffffffffffffff1602179055508173ffffffffffffffffffffffffffffffffffffffff168173ffffffffffffffffffffffffffffffffffffffff167f8be0079c531659141344cd1fd0a4f28419497f9722a3daafe3b4186f6b6457e060405160405180910390a35050565b600081519050919050565b7f4e487b7100000000000000000000000000000000000000000000000000000000600052604160045260246000fd5b7f4e487b7100000000000000000000000000000000000000000000000000000000600052602260045260246000fd5b600060028204905060018216806200022b57607f821691505b602082108103620002415762000240620001e3565b5b50919050565b60008190508160005260206000209050919050565b60006020601f8301049050919050565b600082821b905092915050565b600060088302620002ab7fffffffffffffffffffffffffffffffffffffffffffffffffffffffffffffffff826200026c565b620002b786836200026c565b95508019841693508086168417925050509392505050565b6000819050919050565b6000819050919050565b600062000304620002fe620002f884620002cf565b620002d9565b620002cf565b9050919050565b6000819050919050565b6200032083620002e3565b620003386200032f826200030b565b84845462000279565b825550505050565b600090565b6200034f62000340565b6200035c81848462000315565b505050565b5b8181101562000384576200037860008262000345565b60018101905062000362565b5050565b601f821115620003d3576200039d8162000247565b620003a8846200025c565b81016020851015620003b8578190505b620003d0620003c7856200025c565b83018262000361565b50505b505050565b600082821c905092915050565b6000620003f860001984600802620003d8565b1980831691505092915050565b6000620004138383620003e5565b9150826002028217905092915050565b6200042e82620001a9565b67ffffffffffffffff8111156200044a5762000449620001b4565b5b62000456825462000212565b6200046382828562000388565b600060209050601f8311600181146200049b576000841562000486578287015190505b62000492858262000405565b86555062000502565b601f198416620004ab8662000247565b60005b82811015620004d557848901518255600182019150602085019450602081019050620004ae565b86831015620004f55784890151620004f1601f891682620003e5565b8355505b6001600288020188555050505b505050505050565b613a82806200051a6000396000f3fe6080604052600436106101c25760003560e01c80636352211e116100f757806395d89b4111610095578063e985e9c511610064578063e985e9c514610612578063edf85f511461064f578063f12e0f801461068c578063f2fde38b146106b7576101c2565b806395d89b4114610558578063a22cb46514610583578063b88d4fde146105ac578063c87b56dd146105d5576101c2565b8063715018a6116100d1578063715018a6146104ae57806375794a3c146104c55780638da5cb5b146104f0578063951e20211461051b576101c2565b80636352211e1461041857806367dd74ca1461045557806370a0823114610471576101c2565b80632b2f0a0c11610164578063394803fd1161013e578063394803fd1461038f5780633ccfd60b146103ce57806342842e0e146103e5578063573c80fa1461040e576101c2565b80632b2f0a0c14610312578063305a67a81461033d578063305a905a14610366576101c2565b8063081812fc116101a0578063081812fc14610258578063095ea7b3146102955780631be76f3a146102be57806323b872dd146102e9576101c2565b806301ffc9a7146101c7578063054ae7df1461020457806306fdde031461022d575b600080fd5b3480156101d357600080fd5b506101ee60048036038101906101e99190612513565b6106e0565b6040516101fb919061255b565b60405180910390f35b34801561021057600080fd5b5061022b600480360381019061022691906125ac565b6107c2565b005b34801561023957600080fd5b50610242610897565b60405161024f9190612669565b60405180910390f35b34801561026457600080fd5b5061027f600480360381019061027a91906125ac565b610929565b60405161028c91906126cc565b60405180910390f35b3480156102a157600080fd5b506102bc60048036038101906102b79190612713565b61096f565b005b3480156102ca57600080fd5b506102d36109aa565b6040516102e09190612762565b60405180910390f35b3480156102f557600080fd5b50610310600480360381019061030b919061277d565b6109b0565b005b34801561031e57600080fd5b50610327610a10565b6040516103349190612762565b60405180910390f35b34801561034957600080fd5b50610364600480360381019061035f91906125ac565b610a16565b005b34801561037257600080fd5b5061038d600480360381019061038891906127d0565b610aa8565b005b34801561039b57600080fd5b506103b660048036038101906103b191906125ac565b610c92565b6040516103c593929190612810565b60405180910390f35b3480156103da57600080fd5b506103e3610cc9565b005b3480156103f157600080fd5b5061040c6004803603810190610407919061277d565b610d87565b005b610416610da7565b005b34801561042457600080fd5b5061043f600480360381019061043a91906125ac565b610f8d565b60405161044c91906126cc565b60405180910390f35b61046f600480360381019061046a91906125ac565b611013565b005b34801561047d57600080fd5b5061049860048036038101906104939190612847565b61135d565b6040516104a59190612762565b60405180910390f35b3480156104ba57600080fd5b506104c3611414565b005b3480156104d157600080fd5b506104da611428565b6040516104e79190612762565b60405180910390f35b3480156104fc57600080fd5b5061050561142e565b60405161051291906126cc565b60405180910390f35b34801561052757600080fd5b50610542600480360381019061053d9190612847565b611458565b60405161054f9190612762565b60405180910390f35b34801561056457600080fd5b5061056d611470565b60405161057a9190612669565b60405180910390f35b34801561058f57600080fd5b506105aa60048036038101906105a591906128a0565b611502565b005b3480156105b857600080fd5b506105d360048036038101906105ce9190612a15565b61153d565b005b3480156105e157600080fd5b506105fc60048036038101906105f791906125ac565b61159f565b6040516106099190612669565b60405180910390f35b34801561061e57600080fd5b5061063960048036038101906106349190612a98565b611607565b604051610646919061255b565b60405180910390f35b34801561065b57600080fd5b50610676600480360381019061067191906125ac565b61169b565b6040516106839190612762565b60405180910390f35b34801561069857600080fd5b506106a16116b3565b6040516106ae9190612762565b60405180910390f35b3480156106c357600080fd5b506106de60048036038101906106d99190612847565b6116b9565b005b60007f80ac58cd000000000000000000000000000000000000000000000000000000007bffffffffffffffffffffffffffffffffffffffffffffffffffffffff1916827bffffffffffffffffffffffffffffffffffffffffffffffffffffffff191614806107ab57507f5b5e139f000000000000000000000000000000000000000000000000000000007bffffffffffffffffffffffffffffffffffffffffffffffffffffffff1916827bffffffffffffffffffffffffffffffffffffffffffffffffffffffff1916145b806107bb57506107ba8261173c565b5b9050919050565b6107ca6117a6565b600b600082815260200190815260200160002060020160009054906101000a900460ff161561082e576040517f08c379a000000000000000000000000000000000000000000000000000000000815260040161082590612b24565b60405180910390fd5b6001600b600083815260200190815260200160002060020160006101000a81548160ff0219169083151502179055507f1f5d53e38fbc5a40092861e993062e74fb6dc7acef58356c7b55aa1afd8b35018160405161088c9190612762565b60405180910390a150565b6060600080546108a690612b73565b80601f01602080910402602001604051908101604052809291908181526020018280546108d290612b73565b801561091f5780601f106108f45761010080835404028352916020019161091f565b820191906000526020600020905b81548152906001019060200180831161090257829003601f168201915b5050505050905090565b600061093482611824565b6004600083815260200190815260200160002060009054906101000a900473ffffffffffffffffffffffffffffffffffffffff169050919050565b6040517f08c379a00000000000000000000000000000000000000000000000000000000081526004016109a190612bf0565b60405180910390fd5b60095481565b6109c16109bb61186f565b82611877565b610a00576040517f08c379a00000000000000000000000000000000000000000000000000000000081526004016109f790612c82565b60405180910390fd5b610a0b83838361190c565b505050565b60085481565b3373ffffffffffffffffffffffffffffffffffffffff16610a3682610f8d565b73ffffffffffffffffffffffffffffffffffffffff1614610a8c576040517f08c379a0000000000000000000000000000000000000000000000000000000008152600401610a8390612cee565b60405180910390fd5b6000600d60008381526020019081526020016000208190555050565b3373ffffffffffffffffffffffffffffffffffffffff16610ac883610f8d565b73ffffffffffffffffffffffffffffffffffffffff1614610b1e576040517f08c379a0000000000000000000000000000000000000000000000000000000008152600401610b1590612cee565b60405180910390fd5b600b600083815260200190815260200160002060020160009054906101000a900460ff1615610b82576040517f08c379a0000000000000000000000000000000000000000000000000000000008152600401610b7990612d5a565b60405180910390fd5b60008111610bc5576040517f08c379a0000000000000000000000000000000000000000000000000000000008152600401610bbc90612dc6565b60405180910390fd5b60006064600a54600b600086815260200190815260200160002060000154610bed9190612e15565b610bf79190612e86565b905080821115610c3c576040517f08c379a0000000000000000000000000000000000000000000000000000000008152600401610c3390612f03565b60405180910390fd5b81600d6000858152602001908152602001600020819055507fbca2f6391cafd6d28d39261ba883dd74090c618befb806e74ef434778bb2f7ed8383604051610c85929190612f23565b60405180910390a1505050565b600b6020528060005260406000206000915090508060000154908060010154908060020160009054906101000a900460ff16905083565b610cd16117a6565b6000610cdb61142e565b73ffffffffffffffffffffffffffffffffffffffff1647604051610cfe90612f7d565b60006040518083038185875af1925050503d8060008114610d3b576040519150601f19603f3d011682016040523d82523d6000602084013e610d40565b606091505b5050905080610d84576040517f08c379a0000000000000000000000000000000000000000000000000000000008152600401610d7b90612fde565b60405180910390fd5b50565b610da28383836040518060200160405280600081525061153d565b505050565b600854600c60003373ffffffffffffffffffffffffffffffffffffffff1673ffffffffffffffffffffffffffffffffffffffff1681526020019081526020016000205410610e2a576040517f08c379a0000000000000000000000000000000000000000000000000000000008152600401610e219061304a565b60405180910390fd5b60003411610e6d576040517f08c379a0000000000000000000000000000000000000000000000000000000008152600401610e64906130b6565b60405180910390fd5b600060076000815480929190610e82906130d6565b919050559050610e92338261198a565b604051806060016040528034815260200142815260200160001515815250600b6000838152602001908152602001600020600082015181600001556020820151816001015560408201518160020160006101000a81548160ff021916908315150217905550905050600c60003373ffffffffffffffffffffffffffffffffffffffff1673ffffffffffffffffffffffffffffffffffffffff1681526020019081526020016000206000815480929190610f4a906130d6565b91905055507fcbea9c23945e351434f7ae5b1a435091cc278dd9dd0eba4c04203674014ca7d7338234604051610f829392919061311e565b60405180910390a150565b600080610f99836119a8565b9050600073ffffffffffffffffffffffffffffffffffffffff168173ffffffffffffffffffffffffffffffffffffffff160361100a576040517f08c379a0000000000000000000000000000000000000000000000000000000008152600401611001906131a1565b60405180910390fd5b80915050919050565b6000600d6000838152602001908152602001600020549050600061103683610f8d565b90506000821161107b576040517f08c379a00000000000000000000000000000000000000000000000000000000081526004016110729061320d565b60405180910390fd5b8134146110bd576040517f08c379a00000000000000000000000000000000000000000000000000000000081526004016110b490613279565b60405180910390fd5b8073ffffffffffffffffffffffffffffffffffffffff163373ffffffffffffffffffffffffffffffffffffffff160361112b576040517f08c379a0000000000000000000000000000000000000000000000000000000008152600401611122906132e5565b60405180910390fd5b6000600b6000858152602001908152602001600020905060095481600101546111549190613305565b421015611196576040517f08c379a000000000000000000000000000000000000000000000000000000000815260040161118d90613385565b60405180910390fd5b6000600d600086815260200190815260200160002081905550428160010181905550600c60008373ffffffffffffffffffffffffffffffffffffffff1673ffffffffffffffffffffffffffffffffffffffff1681526020019081526020016000206000815480929190611208906133a5565b9190505550600c60003373ffffffffffffffffffffffffffffffffffffffff1673ffffffffffffffffffffffffffffffffffffffff168152602001908152602001600020600081548092919061125d906130d6565b919050555061126d82338661190c565b60008273ffffffffffffffffffffffffffffffffffffffff163460405161129390612f7d565b60006040518083038185875af1925050503d80600081146112d0576040519150601f19603f3d011682016040523d82523d6000602084013e6112d5565b606091505b5050905080611319576040517f08c379a00000000000000000000000000000000000000000000000000000000081526004016113109061341a565b60405180910390fd5b7f2bbc64d6afd28a753f6c5e4aaa894f1d684c44a0e080167eae104ac8505cfebd8584333460405161134e949392919061343a565b60405180910390a15050505050565b60008073ffffffffffffffffffffffffffffffffffffffff168273ffffffffffffffffffffffffffffffffffffffff16036113cd576040517f08c379a00000000000000000000000000000000000000000000000000000000081526004016113c4906134f1565b60405180910390fd5b600360008373ffffffffffffffffffffffffffffffffffffffff1673ffffffffffffffffffffffffffffffffffffffff168152602001908152602001600020549050919050565b61141c6117a6565b61142660006119e5565b565b60075481565b6000600660009054906101000a900473ffffffffffffffffffffffffffffffffffffffff16905090565b600c6020528060005260406000206000915090505481565b60606001805461147f90612b73565b80601f01602080910402602001604051908101604052809291908181526020018280546114ab90612b73565b80156114f85780601f106114cd576101008083540402835291602001916114f8565b820191906000526020600020905b8154815290600101906020018083116114db57829003601f168201915b5050505050905090565b6040517f08c379a000000000000000000000000000000000000000000000000000000000815260040161153490612bf0565b60405180910390fd5b61154e61154861186f565b83611877565b61158d576040517f08c379a000000000000000000000000000000000000000000000000000000000815260040161158490612c82565b60405180910390fd5b61159984848484611aab565b50505050565b60606115aa82611824565b60006115b4611b07565b905060008151116115d457604051806020016040528060008152506115ff565b806115de84611b1e565b6040516020016115ef92919061354d565b6040516020818303038152906040525b915050919050565b6000600560008473ffffffffffffffffffffffffffffffffffffffff1673ffffffffffffffffffffffffffffffffffffffff16815260200190815260200160002060008373ffffffffffffffffffffffffffffffffffffffff1673ffffffffffffffffffffffffffffffffffffffff16815260200190815260200160002060009054906101000a900460ff16905092915050565b600d6020528060005260406000206000915090505481565b600a5481565b6116c16117a6565b600073ffffffffffffffffffffffffffffffffffffffff168173ffffffffffffffffffffffffffffffffffffffff1603611730576040517f08c379a0000000000000000000000000000000000000000000000000000000008152600401611727906135e3565b60405180910390fd5b611739816119e5565b50565b60007f01ffc9a7000000000000000000000000000000000000000000000000000000007bffffffffffffffffffffffffffffffffffffffffffffffffffffffff1916827bffffffffffffffffffffffffffffffffffffffffffffffffffffffff1916149050919050565b6117ae61186f565b73ffffffffffffffffffffffffffffffffffffffff166117cc61142e565b73ffffffffffffffffffffffffffffffffffffffff1614611822576040517f08c379a00000000000000000000000000000000000000000000000000000000081526004016118199061364f565b60405180910390fd5b565b61182d81611bec565b61186c576040517f08c379a0000000000000000000000000000000000000000000000000000000008152600401611863906131a1565b60405180910390fd5b50565b600033905090565b60008061188383610f8d565b90508073ffffffffffffffffffffffffffffffffffffffff168473ffffffffffffffffffffffffffffffffffffffff1614806118c557506118c48185611607565b5b8061190357508373ffffffffffffffffffffffffffffffffffffffff166118eb84610929565b73ffffffffffffffffffffffffffffffffffffffff16145b91505092915050565b3073ffffffffffffffffffffffffffffffffffffffff163373ffffffffffffffffffffffffffffffffffffffff161461197a576040517f08c379a0000000000000000000000000000000000000000000000000000000008152600401611971906136bb565b60405180910390fd5b611985838383611c2d565b505050565b6119a4828260405180602001604052806000815250611f26565b5050565b60006002600083815260200190815260200160002060009054906101000a900473ffffffffffffffffffffffffffffffffffffffff169050919050565b6000600660009054906101000a900473ffffffffffffffffffffffffffffffffffffffff16905081600660006101000a81548173ffffffffffffffffffffffffffffffffffffffff021916908373ffffffffffffffffffffffffffffffffffffffff1602179055508173ffffffffffffffffffffffffffffffffffffffff168173ffffffffffffffffffffffffffffffffffffffff167f8be0079c531659141344cd1fd0a4f28419497f9722a3daafe3b4186f6b6457e060405160405180910390a35050565b611ab684848461190c565b611ac284848484611f81565b611b01576040517f08c379a0000000000000000000000000000000000000000000000000000000008152600401611af89061374d565b60405180910390fd5b50505050565b606060405180602001604052806000815250905090565b606060006001611b2d84612108565b01905060008167ffffffffffffffff811115611b4c57611b4b6128ea565b5b6040519080825280601f01601f191660200182016040528015611b7e5781602001600182028036833780820191505090505b509050600082602001820190505b600115611be1578080600190039150507f3031323334353637383961626364656600000000000000000000000000000000600a86061a8153600a8581611bd557611bd4612e57565b5b04945060008503611b8c575b819350505050919050565b60008073ffffffffffffffffffffffffffffffffffffffff16611c0e836119a8565b73ffffffffffffffffffffffffffffffffffffffff1614159050919050565b8273ffffffffffffffffffffffffffffffffffffffff16611c4d82610f8d565b73ffffffffffffffffffffffffffffffffffffffff1614611ca3576040517f08c379a0000000000000000000000000000000000000000000000000000000008152600401611c9a906137df565b60405180910390fd5b600073ffffffffffffffffffffffffffffffffffffffff168273ffffffffffffffffffffffffffffffffffffffff1603611d12576040517f08c379a0000000000000000000000000000000000000000000000000000000008152600401611d0990613871565b60405180910390fd5b611d1f838383600161225b565b8273ffffffffffffffffffffffffffffffffffffffff16611d3f82610f8d565b73ffffffffffffffffffffffffffffffffffffffff1614611d95576040517f08c379a0000000000000000000000000000000000000000000000000000000008152600401611d8c906137df565b60405180910390fd5b6004600082815260200190815260200160002060006101000a81549073ffffffffffffffffffffffffffffffffffffffff02191690556001600360008573ffffffffffffffffffffffffffffffffffffffff1673ffffffffffffffffffffffffffffffffffffffff168152602001908152602001600020600082825403925050819055506001600360008473ffffffffffffffffffffffffffffffffffffffff1673ffffffffffffffffffffffffffffffffffffffff16815260200190815260200160002060008282540192505081905550816002600083815260200190815260200160002060006101000a81548173ffffffffffffffffffffffffffffffffffffffff021916908373ffffffffffffffffffffffffffffffffffffffff160217905550808273ffffffffffffffffffffffffffffffffffffffff168473ffffffffffffffffffffffffffffffffffffffff167fddf252ad1be2c89b69c2b068fc378daa952ba7f163c4a11628f55a4df523b3ef60405160405180910390a4611f218383836001612261565b505050565b611f308383612267565b611f3d6000848484611f81565b611f7c576040517f08c379a0000000000000000000000000000000000000000000000000000000008152600401611f739061374d565b60405180910390fd5b505050565b6000611fa28473ffffffffffffffffffffffffffffffffffffffff16612484565b156120fb578373ffffffffffffffffffffffffffffffffffffffff1663150b7a02611fcb61186f565b8786866040518563ffffffff1660e01b8152600401611fed94939291906138e6565b6020604051808303816000875af192505050801561202957506040513d601f19601f820116820180604052508101906120269190613947565b60015b6120ab573d8060008114612059576040519150601f19603f3d011682016040523d82523d6000602084013e61205e565b606091505b5060008151036120a3576040517f08c379a000000000000000000000000000000000000000000000000000000000815260040161209a9061374d565b60405180910390fd5b805181602001fd5b63150b7a0260e01b7bffffffffffffffffffffffffffffffffffffffffffffffffffffffff1916817bffffffffffffffffffffffffffffffffffffffffffffffffffffffff191614915050612100565b600190505b949350505050565b600080600090507a184f03e93ff9f4daa797ed6e38ed64bf6a1f0100000000000000008310612166577a184f03e93ff9f4daa797ed6e38ed64bf6a1f010000000000000000838161215c5761215b612e57565b5b0492506040810190505b6d04ee2d6d415b85acef810000000083106121a3576d04ee2d6d415b85acef8100000000838161219957612198612e57565b5b0492506020810190505b662386f26fc1000083106121d257662386f26fc1000083816121c8576121c7612e57565b5b0492506010810190505b6305f5e10083106121fb576305f5e10083816121f1576121f0612e57565b5b0492506008810190505b612710831061222057612710838161221657612215612e57565b5b0492506004810190505b60648310612243576064838161223957612238612e57565b5b0492506002810190505b600a8310612252576001810190505b80915050919050565b50505050565b50505050565b600073ffffffffffffffffffffffffffffffffffffffff168273ffffffffffffffffffffffffffffffffffffffff16036122d6576040517f08c379a00000000000000000000000000000000000000000000000000000000081526004016122cd906139c0565b60405180910390fd5b6122df81611bec565b1561231f576040517f08c379a000000000000000000000000000000000000000000000000000000000815260040161231690613a2c565b60405180910390fd5b61232d60008383600161225b565b61233681611bec565b15612376576040517f08c379a000000000000000000000000000000000000000000000000000000000815260040161236d90613a2c565b60405180910390fd5b6001600360008473ffffffffffffffffffffffffffffffffffffffff1673ffffffffffffffffffffffffffffffffffffffff16815260200190815260200160002060008282540192505081905550816002600083815260200190815260200160002060006101000a81548173ffffffffffffffffffffffffffffffffffffffff021916908373ffffffffffffffffffffffffffffffffffffffff160217905550808273ffffffffffffffffffffffffffffffffffffffff16600073ffffffffffffffffffffffffffffffffffffffff167fddf252ad1be2c89b69c2b068fc378daa952ba7f163c4a11628f55a4df523b3ef60405160405180910390a4612480600083836001612261565b5050565b6000808273ffffffffffffffffffffffffffffffffffffffff163b119050919050565b6000604051905090565b600080fd5b600080fd5b60007fffffffff0000000000000000000000000000000000000000000000000000000082169050919050565b6124f0816124bb565b81146124fb57600080fd5b50565b60008135905061250d816124e7565b92915050565b600060208284031215612529576125286124b1565b5b6000612537848285016124fe565b91505092915050565b60008115159050919050565b61255581612540565b82525050565b6000602082019050612570600083018461254c565b92915050565b6000819050919050565b61258981612576565b811461259457600080fd5b50565b6000813590506125a681612580565b92915050565b6000602082840312156125c2576125c16124b1565b5b60006125d084828501612597565b91505092915050565b600081519050919050565b600082825260208201905092915050565b60005b838110156126135780820151818401526020810190506125f8565b60008484015250505050565b6000601f19601f8301169050919050565b600061263b826125d9565b61264581856125e4565b93506126558185602086016125f5565b61265e8161261f565b840191505092915050565b600060208201905081810360008301526126838184612630565b905092915050565b600073ffffffffffffffffffffffffffffffffffffffff82169050919050565b60006126b68261268b565b9050919050565b6126c6816126ab565b82525050565b60006020820190506126e160008301846126bd565b92915050565b6126f0816126ab565b81146126fb57600080fd5b50565b60008135905061270d816126e7565b92915050565b6000806040838503121561272a576127296124b1565b5b6000612738858286016126fe565b925050602061274985828601612597565b9150509250929050565b61275c81612576565b82525050565b60006020820190506127776000830184612753565b92915050565b600080600060608486031215612796576127956124b1565b5b60006127a4868287016126fe565b93505060206127b5868287016126fe565b92505060406127c686828701612597565b9150509250925092565b600080604083850312156127e7576127e66124b1565b5b60006127f585828601612597565b925050602061280685828601612597565b9150509250929050565b60006060820190506128256000830186612753565b6128326020830185612753565b61283f604083018461254c565b949350505050565b60006020828403121561285d5761285c6124b1565b5b600061286b848285016126fe565b91505092915050565b61287d81612540565b811461288857600080fd5b50565b60008135905061289a81612874565b92915050565b600080604083850312156128b7576128b66124b1565b5b60006128c5858286016126fe565b92505060206128d68582860161288b565b9150509250929050565b600080fd5b600080fd5b7f4e487b7100000000000000000000000000000000000000000000000000000000600052604160045260246000fd5b6129228261261f565b810181811067ffffffffffffffff82111715612941576129406128ea565b5b80604052505050565b60006129546124a7565b90506129608282612919565b919050565b600067ffffffffffffffff8211156129805761297f6128ea565b5b6129898261261f565b9050602081019050919050565b82818337600083830152505050565b60006129b86129b384612965565b61294a565b9050828152602081018484840111156129d4576129d36128e5565b5b6129df848285612996565b509392505050565b600082601f8301126129fc576129fb6128e0565b5b8135612a0c8482602086016129a5565b91505092915050565b60008060008060808587031215612a2f57612a2e6124b1565b5b6000612a3d878288016126fe565b9450506020612a4e878288016126fe565b9350506040612a5f87828801612597565b925050606085013567ffffffffffffffff811115612a8057612a7f6124b6565b5b612a8c878288016129e7565b91505092959194509250565b60008060408385031215612aaf57612aae6124b1565b5b6000612abd858286016126fe565b9250506020612ace858286016126fe565b9150509250929050565b7f416c726561647920757365640000000000000000000000000000000000000000600082015250565b6000612b0e600c836125e4565b9150612b1982612ad8565b602082019050919050565b60006020820190508181036000830152612b3d81612b01565b9050919050565b7f4e487b7100000000000000000000000000000000000000000000000000000000600052602260045260246000fd5b60006002820490506001821680612b8b57607f821691505b602082108103612b9e57612b9d612b44565b5b50919050565b7f44697361626c6564000000000000000000000000000000000000000000000000600082015250565b6000612bda6008836125e4565b9150612be582612ba4565b602082019050919050565b60006020820190508181036000830152612c0981612bcd565b9050919050565b7f4552433732313a2063616c6c6572206973206e6f7420746f6b656e206f776e6560008201527f72206f7220617070726f76656400000000000000000000000000000000000000602082015250565b6000612c6c602d836125e4565b9150612c7782612c10565b604082019050919050565b60006020820190508181036000830152612c9b81612c5f565b9050919050565b7f4e6f74206f776e65720000000000000000000000000000000000000000000000600082015250565b6000612cd86009836125e4565b9150612ce382612ca2565b602082019050919050565b60006020820190508181036000830152612d0781612ccb565b9050919050565b7f5573656400000000000000000000000000000000000000000000000000000000600082015250565b6000612d446004836125e4565b9150612d4f82612d0e565b602082019050919050565b60006020820190508181036000830152612d7381612d37565b9050919050565b7f496e76616c696420707269636500000000000000000000000000000000000000600082015250565b6000612db0600d836125e4565b9150612dbb82612d7a565b602082019050919050565b60006020820190508181036000830152612ddf81612da3565b9050919050565b7f4e487b7100000000000000000000000000000000000000000000000000000000600052601160045260246000fd5b6000612e2082612576565b9150612e2b83612576565b9250828202612e3981612576565b91508282048414831517612e5057612e4f612de6565b5b5092915050565b7f4e487b7100000000000000000000000000000000000000000000000000000000600052601260045260246000fd5b6000612e9182612576565b9150612e9c83612576565b925082612eac57612eab612e57565b5b828204905092915050565b7f546f6f2068696768000000000000000000000000000000000000000000000000600082015250565b6000612eed6008836125e4565b9150612ef882612eb7565b602082019050919050565b60006020820190508181036000830152612f1c81612ee0565b9050919050565b6000604082019050612f386000830185612753565b612f456020830184612753565b9392505050565b600081905092915050565b50565b6000612f67600083612f4c565b9150612f7282612f57565b600082019050919050565b6000612f8882612f5a565b9150819050919050565b7f5769746864726177206661696c65640000000000000000000000000000000000600082015250565b6000612fc8600f836125e4565b9150612fd382612f92565b602082019050919050565b60006020820190508181036000830152612ff781612fbb565b9050919050565b7f4c696d6974207265616368656400000000000000000000000000000000000000600082015250565b6000613034600d836125e4565b915061303f82612ffe565b602082019050919050565b6000602082019050818103600083015261306381613027565b9050919050565b7f5061792072657175697265640000000000000000000000000000000000000000600082015250565b60006130a0600c836125e4565b91506130ab8261306a565b602082019050919050565b600060208201905081810360008301526130cf81613093565b9050919050565b60006130e182612576565b91507fffffffffffffffffffffffffffffffffffffffffffffffffffffffffffffffff820361311357613112612de6565b5b600182019050919050565b600060608201905061313360008301866126bd565b6131406020830185612753565b61314d6040830184612753565b949350505050565b7f4552433732313a20696e76616c696420746f6b656e2049440000000000000000600082015250565b600061318b6018836125e4565b915061319682613155565b602082019050919050565b600060208201905081810360008301526131ba8161317e565b9050919050565b7f4e6f7420666f722073616c650000000000000000000000000000000000000000600082015250565b60006131f7600c836125e4565b9150613202826131c1565b602082019050919050565b60006020820190508181036000830152613226816131ea565b9050919050565b7f57726f6e67207072696365000000000000000000000000000000000000000000600082015250565b6000613263600b836125e4565b915061326e8261322d565b602082019050919050565b6000602082019050818103600083015261329281613256565b9050919050565b7f53656c6620627579000000000000000000000000000000000000000000000000600082015250565b60006132cf6008836125e4565b91506132da82613299565b602082019050919050565b600060208201905081810360008301526132fe816132c2565b9050919050565b600061331082612576565b915061331b83612576565b925082820190508082111561333357613332612de6565b5b92915050565b7f436f6f6c646f776e000000000000000000000000000000000000000000000000600082015250565b600061336f6008836125e4565b915061337a82613339565b602082019050919050565b6000602082019050818103600083015261339e81613362565b9050919050565b60006133b082612576565b9150600082036133c3576133c2612de6565b5b600182039050919050565b7f5061796d656e74206661696c6564000000000000000000000000000000000000600082015250565b6000613404600e836125e4565b915061340f826133ce565b602082019050919050565b60006020820190508181036000830152613433816133f7565b9050919050565b600060808201905061344f6000830187612753565b61345c60208301866126bd565b61346960408301856126bd565b6134766060830184612753565b95945050505050565b7f4552433732313a2061646472657373207a65726f206973206e6f74206120766160008201527f6c6964206f776e65720000000000000000000000000000000000000000000000602082015250565b60006134db6029836125e4565b91506134e68261347f565b604082019050919050565b6000602082019050818103600083015261350a816134ce565b9050919050565b600081905092915050565b6000613527826125d9565b6135318185613511565b93506135418185602086016125f5565b80840191505092915050565b6000613559828561351c565b9150613565828461351c565b91508190509392505050565b7f4f776e61626c653a206e6577206f776e657220697320746865207a65726f206160008201527f6464726573730000000000000000000000000000000000000000000000000000602082015250565b60006135cd6026836125e4565b91506135d882613571565b604082019050919050565b600060208201905081810360008301526135fc816135c0565b9050919050565b7f4f776e61626c653a2063616c6c6572206973206e6f7420746865206f776e6572600082015250565b60006136396020836125e4565b915061364482613603565b602082019050919050565b600060208201905081810360008301526136688161362c565b9050919050565b7f557365206d61726b6574706c6163650000000000000000000000000000000000600082015250565b60006136a5600f836125e4565b91506136b08261366f565b602082019050919050565b600060208201905081810360008301526136d481613698565b9050919050565b7f4552433732313a207472616e7366657220746f206e6f6e20455243373231526560008201527f63656976657220696d706c656d656e7465720000000000000000000000000000602082015250565b60006137376032836125e4565b9150613742826136db565b604082019050919050565b600060208201905081810360008301526137668161372a565b9050919050565b7f4552433732313a207472616e736665722066726f6d20696e636f72726563742060008201527f6f776e6572000000000000000000000000000000000000000000000000000000602082015250565b60006137c96025836125e4565b91506137d48261376d565b604082019050919050565b600060208201905081810360008301526137f8816137bc565b9050919050565b7f4552433732313a207472616e7366657220746f20746865207a65726f2061646460008201527f7265737300000000000000000000000000000000000000000000000000000000602082015250565b600061385b6024836125e4565b9150613866826137ff565b604082019050919050565b6000602082019050818103600083015261388a8161384e565b9050919050565b600081519050919050565b600082825260208201905092915050565b60006138b882613891565b6138c2818561389c565b93506138d28185602086016125f5565b6138db8161261f565b840191505092915050565b60006080820190506138fb60008301876126bd565b61390860208301866126bd565b6139156040830185612753565b818103606083015261392781846138ad565b905095945050505050565b600081519050613941816124e7565b92915050565b60006020828403121561395d5761395c6124b1565b5b600061396b84828501613932565b91505092915050565b7f4552433732313a206d696e7420746f20746865207a65726f2061646472657373600082015250565b60006139aa6020836125e4565b91506139b582613974565b602082019050919050565b600060208201905081810360008301526139d98161399d565b9050919050565b7f4552433732313a20746f6b656e20616c7265616479206d696e74656400000000600082015250565b6000613a16601c836125e4565b9150613a21826139e0565b602082019050919050565b60006020820190508181036000830152613a4581613a09565b905091905056fea26469706673582212204afc337adb9e9bcc043410ae9a345ef1d09fd2cbdb4e80600bf9100f042ef61464736f6c63430008140033",
  "linkReferences": {},
  "deployedLinkReferences": {}
}