{
  "_format": "hh-sol-artifact-1",
  "contractName": "TicketNFT",
  "sourceName": "contracts/Ticket.sol",
  "abi": [
    {
      "inputs": [],
      "stateMutability": "nonpayable",
      "type": "constructor"
    },
    {
      "anonymous": false,
      "inputs": [
        {
          "indexed": true,
          "internalType": "address",
          "name": "owner",
          "type": "address"
        },
        {
          "indexed": true,
          "internalType": "address",
          "name": "approved",
          "type": "address"
        },
        {
          "indexed": true,
          "internalType": "uint256",
          "name": "tokenId",
          "type": "uint256"
        }
      ],
      "name": "Approval",
      "type": "event"
    },
    {
      "anonymous": false,
      "inputs": [
        {
          "indexed": true,
          "internalType": "address",
          "name": "owner",
          "type": "address"
        },
        {
          "indexed": true,
          "internalType": "address",
          "name": "operator",
          "type": "address"
        },
        {
          "indexed": false,
          "internalType": "bool",
          "name": "approved",
          "type": "bool"
        }
      ],
      "name": "ApprovalForAll",
      "type": "event"
    },
    {
      "anonymous": false,
      "inputs": [
        {
          "indexed": true,
          "internalType": "address",
          "name": "previousOwner",
          "type": "address"
        },
        {
          "indexed": true,
          "internalType": "address",
          "name": "newOwner",
          "type": "address"
        }
      ],
      "name": "OwnershipTransferred",
      "type": "event"
    },
    {
      "anonymous": false,
      "inputs": [
        {
          "indexed": true,
          "internalType": "address",
          "name": "from",
          "type": "address"
        },
        {
          "indexed": true,
          "internalType": "address",
          "name": "to",
          "type": "address"
        },
        {
          "indexed": true,
          "internalType": "uint256",
          "name": "tokenId",
          "type": "uint256"
        }
      ],
      "name": "Transfer",
      "type": "event"
    },
    {
      "inputs": [
        {
          "internalType": "address",
          "name": "to",
          "type": "address"
        },
        {
          "internalType": "uint256",
          "name": "tokenId",
          "type": "uint256"
        }
      ],
      "name": "approve",
      "outputs": [],
      "stateMutability": "nonpayable",
      "type": "function"
    },
    {
      "inputs": [
        {
          "internalType": "address",
          "name": "owner",
          "type": "address"
        }
      ],
      "name": "balanceOf",
      "outputs": [
        {
          "internalType": "uint256",
          "name": "",
          "type": "uint256"
        }
      ],
      "stateMutability": "view",
      "type": "function"
    },
    {
      "inputs": [
        {
          "internalType": "uint256",
          "name": "tokenId",
          "type": "uint256"
        }
      ],
      "name": "getApproved",
      "outputs": [
        {
          "internalType": "address",
          "name": "",
          "type": "address"
        }
      ],
      "stateMutability": "view",
      "type": "function"
    },
    {
      "inputs": [
        {
          "internalType": "address",
          "name": "owner",
          "type": "address"
        },
        {
          "internalType": "address",
          "name": "operator",
          "type": "address"
        }
      ],
      "name": "isApprovedForAll",
      "outputs": [
        {
          "internalType": "bool",
          "name": "",
          "type": "bool"
        }
      ],
      "stateMutability": "view",
      "type": "function"
    },
    {
      "inputs": [],
      "name": "maxResalePercent",
      "outputs": [
        {
          "internalType": "uint256",
          "name": "",
          "type": "uint256"
        }
      ],
      "stateMutability": "view",
      "type": "function"
    },
    {
      "inputs": [],
      "name": "maxTicketsPerWallet",
      "outputs": [
        {
          "internalType": "uint256",
          "name": "",
          "type": "uint256"
        }
      ],
      "stateMutability": "view",
      "type": "function"
    },
    {
      "inputs": [],
      "name": "mintTicket",
      "outputs": [],
      "stateMutability": "payable",
      "type": "function"
    },
    {
      "inputs": [],
      "name": "name",
      "outputs": [
        {
          "internalType": "string",
          "name": "",
          "type": "string"
        }
      ],
      "stateMutability": "view",
      "type": "function"
    },
    {
      "inputs": [],
      "name": "nextTokenId",
      "outputs": [
        {
          "internalType": "uint256",
          "name": "",
          "type": "uint256"
        }
      ],
      "stateMutability": "view",
      "type": "function"
    },
    {
      "inputs": [],
      "name": "owner",
      "outputs": [
        {
          "internalType": "address",
          "name": "",
          "type": "address"
        }
      ],
      "stateMutability": "view",
      "type": "function"
    },
    {
      "inputs": [
        {
          "internalType": "uint256",
          "name": "tokenId",
          "type": "uint256"
        }
      ],
      "name": "ownerOf",
      "outputs": [
        {
          "internalType": "address",
          "name": "",
          "type": "address"
        }
      ],
      "stateMutability": "view",
      "type": "function"
    },
    {
      "inputs": [],
      "name": "renounceOwnership",
      "outputs": [],
      "stateMutability": "nonpayable",
      "type": "function"
    },
    {
      "inputs": [],
      "name": "resaleCooldown",
      "outputs": [
        {
          "internalType": "uint256",
          "name": "",
          "type": "uint256"
        }
      ],
      "stateMutability": "view",
      "type": "function"
    },
    {
      "inputs": [
        {
          "internalType": "uint256",
          "name": "tokenId",
          "type": "uint256"
        },
        {
          "internalType": "address",
          "name": "buyer",
          "type": "address"
        }
      ],
      "name": "resellTicket",
      "outputs": [],
      "stateMutability": "payable",
      "type": "function"
    },
    {
      "inputs": [
        {
          "internalType": "address",
          "name": "from",
          "type": "address"
        },
        {
          "internalType": "address",
          "name": "to",
          "type": "address"
        },
        {
          "internalType": "uint256",
          "name": "tokenId",
          "type": "uint256"
        }
      ],
      "name": "safeTransferFrom",
      "outputs": [],
      "stateMutability": "nonpayable",
      "type": "function"
    },
    {
      "inputs": [
        {
          "internalType": "address",
          "name": "from",
          "type": "address"
        },
        {
          "internalType": "address",
          "name": "to",
          "type": "address"
        },
        {
          "internalType": "uint256",
          "name": "tokenId",
          "type": "uint256"
        },
        {
          "internalType": "bytes",
          "name": "data",
          "type": "bytes"
        }
      ],
      "name": "safeTransferFrom",
      "outputs": [],
      "stateMutability": "nonpayable",
      "type": "function"
    },
    {
      "inputs": [
        {
          "internalType": "address",
          "name": "operator",
          "type": "address"
        },
        {
          "internalType": "bool",
          "name": "approved",
          "type": "bool"
        }
      ],
      "name": "setApprovalForAll",
      "outputs": [],
      "stateMutability": "nonpayable",
      "type": "function"
    },
    {
      "inputs": [
        {
          "internalType": "bytes4",
          "name": "interfaceId",
          "type": "bytes4"
        }
      ],
      "name": "supportsInterface",
      "outputs": [
        {
          "internalType": "bool",
          "name": "",
          "type": "bool"
        }
      ],
      "stateMutability": "view",
      "type": "function"
    },
    {
      "inputs": [],
      "name": "symbol",
      "outputs": [
        {
          "internalType": "string",
          "name": "",
          "type": "string"
        }
      ],
      "stateMutability": "view",
      "type": "function"
    },
    {
      "inputs": [
        {
          "internalType": "uint256",
          "name": "",
          "type": "uint256"
        }
      ],
      "name": "ticketData",
      "outputs": [
        {
          "internalType": "uint256",
          "name": "originalPrice",
          "type": "uint256"
        },
        {
          "internalType": "uint256",
          "name": "purchaseTime",
          "type": "uint256"
        },
        {
          "internalType": "bool",
          "name": "used",
          "type": "bool"
        }
      ],
      "stateMutability": "view",
      "type": "function"
    },
    {
      "inputs": [
        {
          "internalType": "address",
          "name": "",
          "type": "address"
        }
      ],
      "name": "ticketsOwned",
      "outputs": [
        {
          "internalType": "uint256",
          "name": "",
          "type": "uint256"
        }
      ],
      "stateMutability": "view",
      "type": "function"
    },
    {
      "inputs": [
        {
          "internalType": "uint256",
          "name": "tokenId",
          "type": "uint256"
        }
      ],
      "name": "tokenURI",
      "outputs": [
        {
          "internalType": "string",
          "name": "",
          "type": "string"
        }
      ],
      "stateMutability": "view",
      "type": "function"
    },
    {
      "inputs": [
        {
          "internalType": "address",
          "name": "from",
          "type": "address"
        },
        {
          "internalType": "address",
          "name": "to",
          "type": "address"
        },
        {
          "internalType": "uint256",
          "name": "tokenId",
          "type": "uint256"
        }
      ],
      "name": "transferFrom",
      "outputs": [],
      "stateMutability": "nonpayable",
      "type": "function"
    },
    {
      "inputs": [
        {
          "internalType": "address",
          "name": "newOwner",
          "type": "address"
        }
      ],
      "name": "transferOwnership",
      "outputs": [],
      "stateMutability": "nonpayable",
      "type": "function"
    },
    {
      "inputs": [
        {
          "internalType": "uint256",
          "name": "tokenId",
          "type": "uint256"
        }
      ],
      "name": "validateTicket",
      "outputs": [],
      "stateMutability": "nonpayable",
      "type": "function"
    }
  ],
  "bytecode": "0x6080604052600360085562015180600955606e600a553480156200002257600080fd5b506040518060400160405280600b81526020017f4576656e745469636b65740000000000000000000000000000000000000000008152506040518060400160405280600481526020017f45544b54000000000000000000000000000000000000000000000000000000008152508160009081620000a0919062000423565b508060019081620000b2919062000423565b505050620000d5620000c9620000db60201b60201c565b620000e360201b60201c565b6200050a565b600033905090565b6000600660009054906101000a900473ffffffffffffffffffffffffffffffffffffffff16905081600660006101000a81548173ffffffffffffffffffffffffffffffffffffffff021916908373ffffffffffffffffffffffffffffffffffffffff1602179055508173ffffffffffffffffffffffffffffffffffffffff168173ffffffffffffffffffffffffffffffffffffffff167f8be0079c531659141344cd1fd0a4f28419497f9722a3daafe3b4186f6b6457e060405160405180910390a35050565b600081519050919050565b7f4e487b7100000000000000000000000000000000000000000000000000000000600052604160045260246000fd5b7f4e487b7100000000000000000000000000000000000000000000000000000000600052602260045260246000fd5b600060028204905060018216806200022b57607f821691505b602082108103620002415762000240620001e3565b5b50919050565b60008190508160005260206000209050919050565b60006020601f8301049050919050565b600082821b905092915050565b600060088302620002ab7fffffffffffffffffffffffffffffffffffffffffffffffffffffffffffffffff826200026c565b620002b786836200026c565b95508019841693508086168417925050509392505050565b6000819050919050565b6000819050919050565b600062000304620002fe620002f884620002cf565b620002d9565b620002cf565b9050919050565b6000819050919050565b6200032083620002e3565b620003386200032f826200030b565b84845462000279565b825550505050565b600090565b6200034f62000340565b6200035c81848462000315565b505050565b5b8181101562000384576200037860008262000345565b60018101905062000362565b5050565b601f821115620003d3576200039d8162000247565b620003a8846200025c565b81016020851015620003b8578190505b620003d0620003c7856200025c565b83018262000361565b50505b505050565b600082821c905092915050565b6000620003f860001984600802620003d8565b1980831691505092915050565b6000620004138383620003e5565b9150826002028217905092915050565b6200042e82620001a9565b67ffffffffffffffff8111156200044a5762000449620001b4565b5b62000456825462000212565b6200046382828562000388565b600060209050601f8311600181146200049b576000841562000486578287015190505b62000492858262000405565b86555062000502565b601f198416620004ab8662000247565b60005b82811015620004d557848901518255600182019150602085019450602081019050620004ae565b86831015620004f55784890151620004f1601f891682620003e5565b8355505b6001600288020188555050505b505050505050565b6134cb806200051a6000396000f3fe6080604052600436106101665760003560e01c806370a08231116100d157806395d89b411161008a578063c87b56dd11610064578063c87b56dd14610510578063e985e9c51461054d578063f12e0f801461058a578063f2fde38b146105b557610166565b806395d89b4114610493578063a22cb465146104be578063b88d4fde146104e757610166565b806370a0823114610390578063715018a6146103cd57806375794a3c146103e45780637fae47cf1461040f5780638da5cb5b1461042b578063951e20211461045657610166565b806323b872dd1161012357806323b872dd1461028d5780632b2f0a0c146102b6578063394803fd146102e157806342842e0e14610320578063573c80fa146103495780636352211e1461035357610166565b806301ffc9a71461016b578063054ae7df146101a857806306fdde03146101d1578063081812fc146101fc578063095ea7b3146102395780631be76f3a14610262575b600080fd5b34801561017757600080fd5b50610192600480360381019061018d9190612240565b6105de565b60405161019f9190612288565b60405180910390f35b3480156101b457600080fd5b506101cf60048036038101906101ca91906122d9565b6106c0565b005b3480156101dd57600080fd5b506101e66107cc565b6040516101f39190612396565b60405180910390f35b34801561020857600080fd5b50610223600480360381019061021e91906122d9565b61085e565b60405161023091906123f9565b60405180910390f35b34801561024557600080fd5b50610260600480360381019061025b9190612440565b6108a4565b005b34801561026e57600080fd5b506102776109bb565b604051610284919061248f565b60405180910390f35b34801561029957600080fd5b506102b460048036038101906102af91906124aa565b6109c1565b005b3480156102c257600080fd5b506102cb610a21565b6040516102d8919061248f565b60405180910390f35b3480156102ed57600080fd5b50610308600480360381019061030391906122d9565b610a27565b604051610317939291906124fd565b60405180910390f35b34801561032c57600080fd5b50610347600480360381019061034291906124aa565b610a5e565b005b610351610a7e565b005b34801561035f57600080fd5b5061037a600480360381019061037591906122d9565b610c29565b60405161038791906123f9565b60405180910390f35b34801561039c57600080fd5b506103b760048036038101906103b29190612534565b610caf565b6040516103c4919061248f565b60405180910390f35b3480156103d957600080fd5b506103e2610d66565b005b3480156103f057600080fd5b506103f9610d7a565b604051610406919061248f565b60405180910390f35b61042960048036038101906104249190612561565b610d80565b005b34801561043757600080fd5b50610440610f73565b60405161044d91906123f9565b60405180910390f35b34801561046257600080fd5b5061047d60048036038101906104789190612534565b610f9d565b60405161048a919061248f565b60405180910390f35b34801561049f57600080fd5b506104a8610fb5565b6040516104b59190612396565b60405180910390f35b3480156104ca57600080fd5b506104e560048036038101906104e091906125cd565b611047565b005b3480156104f357600080fd5b5061050e60048036038101906105099190612742565b61105d565b005b34801561051c57600080fd5b50610537600480360381019061053291906122d9565b6110bf565b6040516105449190612396565b60405180910390f35b34801561055957600080fd5b50610574600480360381019061056f91906127c5565b611127565b6040516105819190612288565b60405180910390f35b34801561059657600080fd5b5061059f6111bb565b6040516105ac919061248f565b60405180910390f35b3480156105c157600080fd5b506105dc60048036038101906105d79190612534565b6111c1565b005b60007f80ac58cd000000000000000000000000000000000000000000000000000000007bffffffffffffffffffffffffffffffffffffffffffffffffffffffff1916827bffffffffffffffffffffffffffffffffffffffffffffffffffffffff191614806106a957507f5b5e139f000000000000000000000000000000000000000000000000000000007bffffffffffffffffffffffffffffffffffffffffffffffffffffffff1916827bffffffffffffffffffffffffffffffffffffffffffffffffffffffff1916145b806106b957506106b882611244565b5b9050919050565b3373ffffffffffffffffffffffffffffffffffffffff166106e082610c29565b73ffffffffffffffffffffffffffffffffffffffff1614610736576040517f08c379a000000000000000000000000000000000000000000000000000000000815260040161072d90612851565b60405180910390fd5b600b600082815260200190815260200160002060020160009054906101000a900460ff161561079a576040517f08c379a0000000000000000000000000000000000000000000000000000000008152600401610791906128bd565b60405180910390fd5b6001600b600083815260200190815260200160002060020160006101000a81548160ff02191690831515021790555050565b6060600080546107db9061290c565b80601f01602080910402602001604051908101604052809291908181526020018280546108079061290c565b80156108545780601f1061082957610100808354040283529160200191610854565b820191906000526020600020905b81548152906001019060200180831161083757829003601f168201915b5050505050905090565b6000610869826112ae565b6004600083815260200190815260200160002060009054906101000a900473ffffffffffffffffffffffffffffffffffffffff169050919050565b60006108af82610c29565b90508073ffffffffffffffffffffffffffffffffffffffff168373ffffffffffffffffffffffffffffffffffffffff160361091f576040517f08c379a0000000000000000000000000000000000000000000000000000000008152600401610916906129af565b60405180910390fd5b8073ffffffffffffffffffffffffffffffffffffffff1661093e6112f9565b73ffffffffffffffffffffffffffffffffffffffff16148061096d575061096c816109676112f9565b611127565b5b6109ac576040517f08c379a00000000000000000000000000000000000000000000000000000000081526004016109a390612a41565b60405180910390fd5b6109b68383611301565b505050565b60095481565b6109d26109cc6112f9565b826113ba565b610a11576040517f08c379a0000000000000000000000000000000000000000000000000000000008152600401610a0890612ad3565b60405180910390fd5b610a1c83838361144f565b505050565b60085481565b600b6020528060005260406000206000915090508060000154908060010154908060020160009054906101000a900460ff16905083565b610a798383836040518060200160405280600081525061105d565b505050565b600854600c60003373ffffffffffffffffffffffffffffffffffffffff1673ffffffffffffffffffffffffffffffffffffffff1681526020019081526020016000205410610b01576040517f08c379a0000000000000000000000000000000000000000000000000000000008152600401610af890612b3f565b60405180910390fd5b60003411610b44576040517f08c379a0000000000000000000000000000000000000000000000000000000008152600401610b3b90612bab565b60405180910390fd5b600060076000815480929190610b5990612bfa565b919050559050610b6933826114cd565b604051806060016040528034815260200142815260200160001515815250600b6000838152602001908152602001600020600082015181600001556020820151816001015560408201518160020160006101000a81548160ff021916908315150217905550905050600c60003373ffffffffffffffffffffffffffffffffffffffff1673ffffffffffffffffffffffffffffffffffffffff1681526020019081526020016000206000815480929190610c2190612bfa565b919050555050565b600080610c35836114eb565b9050600073ffffffffffffffffffffffffffffffffffffffff168173ffffffffffffffffffffffffffffffffffffffff1603610ca6576040517f08c379a0000000000000000000000000000000000000000000000000000000008152600401610c9d90612c8e565b60405180910390fd5b80915050919050565b60008073ffffffffffffffffffffffffffffffffffffffff168273ffffffffffffffffffffffffffffffffffffffff1603610d1f576040517f08c379a0000000000000000000000000000000000000000000000000000000008152600401610d1690612d20565b60405180910390fd5b600360008373ffffffffffffffffffffffffffffffffffffffff1673ffffffffffffffffffffffffffffffffffffffff168152602001908152602001600020549050919050565b610d6e611528565b610d7860006115a6565b565b60075481565b3373ffffffffffffffffffffffffffffffffffffffff16610da083610c29565b73ffffffffffffffffffffffffffffffffffffffff1614610df6576040517f08c379a0000000000000000000000000000000000000000000000000000000008152600401610ded90612851565b60405180910390fd5b6000600b600084815260200190815260200160002060405180606001604052908160008201548152602001600182015481526020016002820160009054906101000a900460ff16151515158152505090506009548160200151610e599190612d40565b421015610e9b576040517f08c379a0000000000000000000000000000000000000000000000000000000008152600401610e9290612dc0565b60405180910390fd5b60006064600a548360000151610eb19190612de0565b610ebb9190612e51565b905080341115610f00576040517f08c379a0000000000000000000000000000000000000000000000000000000008152600401610ef790612ece565b60405180910390fd5b3373ffffffffffffffffffffffffffffffffffffffff166108fc349081150290604051600060405180830381858888f19350505050158015610f46573d6000803e3d6000fd5b50610f5233848661144f565b42600b60008681526020019081526020016000206001018190555050505050565b6000600660009054906101000a900473ffffffffffffffffffffffffffffffffffffffff16905090565b600c6020528060005260406000206000915090505481565b606060018054610fc49061290c565b80601f0160208091040260200160405190810160405280929190818152602001828054610ff09061290c565b801561103d5780601f106110125761010080835404028352916020019161103d565b820191906000526020600020905b81548152906001019060200180831161102057829003601f168201915b5050505050905090565b6110596110526112f9565b838361166c565b5050565b61106e6110686112f9565b836113ba565b6110ad576040517f08c379a00000000000000000000000000000000000000000000000000000000081526004016110a490612ad3565b60405180910390fd5b6110b9848484846117d8565b50505050565b60606110ca826112ae565b60006110d4611834565b905060008151116110f4576040518060200160405280600081525061111f565b806110fe8461184b565b60405160200161110f929190612f2a565b6040516020818303038152906040525b915050919050565b6000600560008473ffffffffffffffffffffffffffffffffffffffff1673ffffffffffffffffffffffffffffffffffffffff16815260200190815260200160002060008373ffffffffffffffffffffffffffffffffffffffff1673ffffffffffffffffffffffffffffffffffffffff16815260200190815260200160002060009054906101000a900460ff16905092915050565b600a5481565b6111c9611528565b600073ffffffffffffffffffffffffffffffffffffffff168173ffffffffffffffffffffffffffffffffffffffff1603611238576040517f08c379a000000000000000000000000000000000000000000000000000000000815260040161122f90612fc0565b60405180910390fd5b611241816115a6565b50565b60007f01ffc9a7000000000000000000000000000000000000000000000000000000007bffffffffffffffffffffffffffffffffffffffffffffffffffffffff1916827bffffffffffffffffffffffffffffffffffffffffffffffffffffffff1916149050919050565b6112b781611919565b6112f6576040517f08c379a00000000000000000000000000000000000000000000000000000000081526004016112ed90612c8e565b60405180910390fd5b50565b600033905090565b816004600083815260200190815260200160002060006101000a81548173ffffffffffffffffffffffffffffffffffffffff021916908373ffffffffffffffffffffffffffffffffffffffff160217905550808273ffffffffffffffffffffffffffffffffffffffff1661137483610c29565b73ffffffffffffffffffffffffffffffffffffffff167f8c5be1e5ebec7d5bd14f71427d1e84f3dd0314c0f7b2291e5b200ac8c7c3b92560405160405180910390a45050565b6000806113c683610c29565b90508073ffffffffffffffffffffffffffffffffffffffff168473ffffffffffffffffffffffffffffffffffffffff16148061140857506114078185611127565b5b8061144657508373ffffffffffffffffffffffffffffffffffffffff1661142e8461085e565b73ffffffffffffffffffffffffffffffffffffffff16145b91505092915050565b8273ffffffffffffffffffffffffffffffffffffffff163373ffffffffffffffffffffffffffffffffffffffff16146114bd576040517f08c379a00000000000000000000000000000000000000000000000000000000081526004016114b49061302c565b60405180910390fd5b6114c883838361195a565b505050565b6114e7828260405180602001604052806000815250611c53565b5050565b60006002600083815260200190815260200160002060009054906101000a900473ffffffffffffffffffffffffffffffffffffffff169050919050565b6115306112f9565b73ffffffffffffffffffffffffffffffffffffffff1661154e610f73565b73ffffffffffffffffffffffffffffffffffffffff16146115a4576040517f08c379a000000000000000000000000000000000000000000000000000000000815260040161159b90613098565b60405180910390fd5b565b6000600660009054906101000a900473ffffffffffffffffffffffffffffffffffffffff16905081600660006101000a81548173ffffffffffffffffffffffffffffffffffffffff021916908373ffffffffffffffffffffffffffffffffffffffff1602179055508173ffffffffffffffffffffffffffffffffffffffff168173ffffffffffffffffffffffffffffffffffffffff167f8be0079c531659141344cd1fd0a4f28419497f9722a3daafe3b4186f6b6457e060405160405180910390a35050565b8173ffffffffffffffffffffffffffffffffffffffff168373ffffffffffffffffffffffffffffffffffffffff16036116da576040517f08c379a00000000000000000000000000000000000000000000000000000000081526004016116d190613104565b60405180910390fd5b80600560008573ffffffffffffffffffffffffffffffffffffffff1673ffffffffffffffffffffffffffffffffffffffff16815260200190815260200160002060008473ffffffffffffffffffffffffffffffffffffffff1673ffffffffffffffffffffffffffffffffffffffff16815260200190815260200160002060006101000a81548160ff0219169083151502179055508173ffffffffffffffffffffffffffffffffffffffff168373ffffffffffffffffffffffffffffffffffffffff167f17307eab39ab6107e8899845ad3d59bd9653f200f220920489ca2b5937696c31836040516117cb9190612288565b60405180910390a3505050565b6117e384848461144f565b6117ef84848484611cae565b61182e576040517f08c379a000000000000000000000000000000000000000000000000000000000815260040161182590613196565b60405180910390fd5b50505050565b606060405180602001604052806000815250905090565b60606000600161185a84611e35565b01905060008167ffffffffffffffff81111561187957611878612617565b5b6040519080825280601f01601f1916602001820160405280156118ab5781602001600182028036833780820191505090505b509050600082602001820190505b60011561190e578080600190039150507f3031323334353637383961626364656600000000000000000000000000000000600a86061a8153600a858161190257611901612e22565b5b049450600085036118b9575b819350505050919050565b60008073ffffffffffffffffffffffffffffffffffffffff1661193b836114eb565b73ffffffffffffffffffffffffffffffffffffffff1614159050919050565b8273ffffffffffffffffffffffffffffffffffffffff1661197a82610c29565b73ffffffffffffffffffffffffffffffffffffffff16146119d0576040517f08c379a00000000000000000000000000000000000000000000000000000000081526004016119c790613228565b60405180910390fd5b600073ffffffffffffffffffffffffffffffffffffffff168273ffffffffffffffffffffffffffffffffffffffff1603611a3f576040517f08c379a0000000000000000000000000000000000000000000000000000000008152600401611a36906132ba565b60405180910390fd5b611a4c8383836001611f88565b8273ffffffffffffffffffffffffffffffffffffffff16611a6c82610c29565b73ffffffffffffffffffffffffffffffffffffffff1614611ac2576040517f08c379a0000000000000000000000000000000000000000000000000000000008152600401611ab990613228565b60405180910390fd5b6004600082815260200190815260200160002060006101000a81549073ffffffffffffffffffffffffffffffffffffffff02191690556001600360008573ffffffffffffffffffffffffffffffffffffffff1673ffffffffffffffffffffffffffffffffffffffff168152602001908152602001600020600082825403925050819055506001600360008473ffffffffffffffffffffffffffffffffffffffff1673ffffffffffffffffffffffffffffffffffffffff16815260200190815260200160002060008282540192505081905550816002600083815260200190815260200160002060006101000a81548173ffffffffffffffffffffffffffffffffffffffff021916908373ffffffffffffffffffffffffffffffffffffffff160217905550808273ffffffffffffffffffffffffffffffffffffffff168473ffffffffffffffffffffffffffffffffffffffff167fddf252ad1be2c89b69c2b068fc378daa952ba7f163c4a11628f55a4df523b3ef60405160405180910390a4611c4e8383836001611f8e565b505050565b611c5d8383611f94565b611c6a6000848484611cae565b611ca9576040517f08c379a0000000000000000000000000000000000000000000000000000000008152600401611ca090613196565b60405180910390fd5b505050565b6000611ccf8473ffffffffffffffffffffffffffffffffffffffff166121b1565b15611e28578373ffffffffffffffffffffffffffffffffffffffff1663150b7a02611cf86112f9565b8786866040518563ffffffff1660e01b8152600401611d1a949392919061332f565b6020604051808303816000875af1925050508015611d5657506040513d601f19601f82011682018060405250810190611d539190613390565b60015b611dd8573d8060008114611d86576040519150601f19603f3d011682016040523d82523d6000602084013e611d8b565b606091505b506000815103611dd0576040517f08c379a0000000000000000000000000000000000000000000000000000000008152600401611dc790613196565b60405180910390fd5b805181602001fd5b63150b7a0260e01b7bffffffffffffffffffffffffffffffffffffffffffffffffffffffff1916817bffffffffffffffffffffffffffffffffffffffffffffffffffffffff191614915050611e2d565b600190505b949350505050565b600080600090507a184f03e93ff9f4daa797ed6e38ed64bf6a1f0100000000000000008310611e93577a184f03e93ff9f4daa797ed6e38ed64bf6a1f0100000000000000008381611e8957611e88612e22565b5b0492506040810190505b6d04ee2d6d415b85acef81000000008310611ed0576d04ee2d6d415b85acef81000000008381611ec657611ec5612e22565b5b0492506020810190505b662386f26fc100008310611eff57662386f26fc100008381611ef557611ef4612e22565b5b0492506010810190505b6305f5e1008310611f28576305f5e1008381611f1e57611f1d612e22565b5b0492506008810190505b6127108310611f4d576127108381611f4357611f42612e22565b5b0492506004810190505b60648310611f705760648381611f6657611f65612e22565b5b0492506002810190505b600a8310611f7f576001810190505b80915050919050565b50505050565b50505050565b600073ffffffffffffffffffffffffffffffffffffffff168273ffffffffffffffffffffffffffffffffffffffff1603612003576040517f08c379a0000000000000000000000000000000000000000000000000000000008152600401611ffa90613409565b60405180910390fd5b61200c81611919565b1561204c576040517f08c379a000000000000000000000000000000000000000000000000000000000815260040161204390613475565b60405180910390fd5b61205a600083836001611f88565b61206381611919565b156120a3576040517f08c379a000000000000000000000000000000000000000000000000000000000815260040161209a90613475565b60405180910390fd5b6001600360008473ffffffffffffffffffffffffffffffffffffffff1673ffffffffffffffffffffffffffffffffffffffff16815260200190815260200160002060008282540192505081905550816002600083815260200190815260200160002060006101000a81548173ffffffffffffffffffffffffffffffffffffffff021916908373ffffffffffffffffffffffffffffffffffffffff160217905550808273ffffffffffffffffffffffffffffffffffffffff16600073ffffffffffffffffffffffffffffffffffffffff167fddf252ad1be2c89b69c2b068fc378daa952ba7f163c4a11628f55a4df523b3ef60405160405180910390a46121ad600083836001611f8e565b5050565b6000808273ffffffffffffffffffffffffffffffffffffffff163b119050919050565b6000604051905090565b600080fd5b600080fd5b60007fffffffff0000000000000000000000000000000000000000000000000000000082169050919050565b61221d816121e8565b811461222857600080fd5b50565b60008135905061223a81612214565b92915050565b600060208284031215612256576122556121de565b5b60006122648482850161222b565b91505092915050565b60008115159050919050565b6122828161226d565b82525050565b600060208201905061229d6000830184612279565b92915050565b6000819050919050565b6122b6816122a3565b81146122c157600080fd5b50565b6000813590506122d3816122ad565b92915050565b6000602082840312156122ef576122ee6121de565b5b60006122fd848285016122c4565b91505092915050565b600081519050919050565b600082825260208201905092915050565b60005b83811015612340578082015181840152602081019050612325565b60008484015250505050565b6000601f19601f8301169050919050565b600061236882612306565b6123728185612311565b9350612382818560208601612322565b61238b8161234c565b840191505092915050565b600060208201905081810360008301526123b0818461235d565b905092915050565b600073ffffffffffffffffffffffffffffffffffffffff82169050919050565b60006123e3826123b8565b9050919050565b6123f3816123d8565b82525050565b600060208201905061240e60008301846123ea565b92915050565b61241d816123d8565b811461242857600080fd5b50565b60008135905061243a81612414565b92915050565b60008060408385031215612457576124566121de565b5b60006124658582860161242b565b9250506020612476858286016122c4565b9150509250929050565b612489816122a3565b82525050565b60006020820190506124a46000830184612480565b92915050565b6000806000606084860312156124c3576124c26121de565b5b60006124d18682870161242b565b93505060206124e28682870161242b565b92505060406124f3868287016122c4565b9150509250925092565b60006060820190506125126000830186612480565b61251f6020830185612480565b61252c6040830184612279565b949350505050565b60006020828403121561254a576125496121de565b5b60006125588482850161242b565b91505092915050565b60008060408385031215612578576125776121de565b5b6000612586858286016122c4565b92505060206125978582860161242b565b9150509250929050565b6125aa8161226d565b81146125b557600080fd5b50565b6000813590506125c7816125a1565b92915050565b600080604083850312156125e4576125e36121de565b5b60006125f28582860161242b565b9250506020612603858286016125b8565b9150509250929050565b600080fd5b600080fd5b7f4e487b7100000000000000000000000000000000000000000000000000000000600052604160045260246000fd5b61264f8261234c565b810181811067ffffffffffffffff8211171561266e5761266d612617565b5b80604052505050565b60006126816121d4565b905061268d8282612646565b919050565b600067ffffffffffffffff8211156126ad576126ac612617565b5b6126b68261234c565b9050602081019050919050565b82818337600083830152505050565b60006126e56126e084612692565b612677565b90508281526020810184848401111561270157612700612612565b5b61270c8482856126c3565b509392505050565b600082601f8301126127295761272861260d565b5b81356127398482602086016126d2565b91505092915050565b6000806000806080858703121561275c5761275b6121de565b5b600061276a8782880161242b565b945050602061277b8782880161242b565b935050604061278c878288016122c4565b925050606085013567ffffffffffffffff8111156127ad576127ac6121e3565b5b6127b987828801612714565b91505092959194509250565b600080604083850312156127dc576127db6121de565b5b60006127ea8582860161242b565b92505060206127fb8582860161242b565b9150509250929050565b7f4e6f74206f776e65720000000000000000000000000000000000000000000000600082015250565b600061283b600983612311565b915061284682612805565b602082019050919050565b6000602082019050818103600083015261286a8161282e565b9050919050565b7f416c726561647920757365640000000000000000000000000000000000000000600082015250565b60006128a7600c83612311565b91506128b282612871565b602082019050919050565b600060208201905081810360008301526128d68161289a565b9050919050565b7f4e487b7100000000000000000000000000000000000000000000000000000000600052602260045260246000fd5b6000600282049050600182168061292457607f821691505b602082108103612937576129366128dd565b5b50919050565b7f4552433732313a20617070726f76616c20746f2063757272656e74206f776e6560008201527f7200000000000000000000000000000000000000000000000000000000000000602082015250565b6000612999602183612311565b91506129a48261293d565b604082019050919050565b600060208201905081810360008301526129c88161298c565b9050919050565b7f4552433732313a20617070726f76652063616c6c6572206973206e6f7420746f60008201527f6b656e206f776e6572206f7220617070726f76656420666f7220616c6c000000602082015250565b6000612a2b603d83612311565b9150612a36826129cf565b604082019050919050565b60006020820190508181036000830152612a5a81612a1e565b9050919050565b7f4552433732313a2063616c6c6572206973206e6f7420746f6b656e206f776e6560008201527f72206f7220617070726f76656400000000000000000000000000000000000000602082015250565b6000612abd602d83612311565b9150612ac882612a61565b604082019050919050565b60006020820190508181036000830152612aec81612ab0565b9050919050565b7f4c696d6974207265616368656400000000000000000000000000000000000000600082015250565b6000612b29600d83612311565b9150612b3482612af3565b602082019050919050565b60006020820190508181036000830152612b5881612b1c565b9050919050565b7f50617920666f72207469636b6574000000000000000000000000000000000000600082015250565b6000612b95600e83612311565b9150612ba082612b5f565b602082019050919050565b60006020820190508181036000830152612bc481612b88565b9050919050565b7f4e487b7100000000000000000000000000000000000000000000000000000000600052601160045260246000fd5b6000612c05826122a3565b91507fffffffffffffffffffffffffffffffffffffffffffffffffffffffffffffffff8203612c3757612c36612bcb565b5b600182019050919050565b7f4552433732313a20696e76616c696420746f6b656e2049440000000000000000600082015250565b6000612c78601883612311565b9150612c8382612c42565b602082019050919050565b60006020820190508181036000830152612ca781612c6b565b9050919050565b7f4552433732313a2061646472657373207a65726f206973206e6f74206120766160008201527f6c6964206f776e65720000000000000000000000000000000000000000000000602082015250565b6000612d0a602983612311565b9150612d1582612cae565b604082019050919050565b60006020820190508181036000830152612d3981612cfd565b9050919050565b6000612d4b826122a3565b9150612d56836122a3565b9250828201905080821115612d6e57612d6d612bcb565b5b92915050565b7f436f6f6c646f776e206163746976650000000000000000000000000000000000600082015250565b6000612daa600f83612311565b9150612db582612d74565b602082019050919050565b60006020820190508181036000830152612dd981612d9d565b9050919050565b6000612deb826122a3565b9150612df6836122a3565b9250828202612e04816122a3565b91508282048414831517612e1b57612e1a612bcb565b5b5092915050565b7f4e487b7100000000000000000000000000000000000000000000000000000000600052601260045260246000fd5b6000612e5c826122a3565b9150612e67836122a3565b925082612e7757612e76612e22565b5b828204905092915050565b7f507269636520746f6f2068696768000000000000000000000000000000000000600082015250565b6000612eb8600e83612311565b9150612ec382612e82565b602082019050919050565b60006020820190508181036000830152612ee781612eab565b9050919050565b600081905092915050565b6000612f0482612306565b612f0e8185612eee565b9350612f1e818560208601612322565b80840191505092915050565b6000612f368285612ef9565b9150612f428284612ef9565b91508190509392505050565b7f4f776e61626c653a206e6577206f776e657220697320746865207a65726f206160008201527f6464726573730000000000000000000000000000000000000000000000000000602082015250565b6000612faa602683612311565b9150612fb582612f4e565b604082019050919050565b60006020820190508181036000830152612fd981612f9d565b9050919050565b7f55736520726573616c652066756e6374696f6e00000000000000000000000000600082015250565b6000613016601383612311565b915061302182612fe0565b602082019050919050565b6000602082019050818103600083015261304581613009565b9050919050565b7f4f776e61626c653a2063616c6c6572206973206e6f7420746865206f776e6572600082015250565b6000613082602083612311565b915061308d8261304c565b602082019050919050565b600060208201905081810360008301526130b181613075565b9050919050565b7f4552433732313a20617070726f766520746f2063616c6c657200000000000000600082015250565b60006130ee601983612311565b91506130f9826130b8565b602082019050919050565b6000602082019050818103600083015261311d816130e1565b9050919050565b7f4552433732313a207472616e7366657220746f206e6f6e20455243373231526560008201527f63656976657220696d706c656d656e7465720000000000000000000000000000602082015250565b6000613180603283612311565b915061318b82613124565b604082019050919050565b600060208201905081810360008301526131af81613173565b9050919050565b7f4552433732313a207472616e736665722066726f6d20696e636f72726563742060008201527f6f776e6572000000000000000000000000000000000000000000000000000000602082015250565b6000613212602583612311565b915061321d826131b6565b604082019050919050565b6000602082019050818103600083015261324181613205565b9050919050565b7f4552433732313a207472616e7366657220746f20746865207a65726f2061646460008201527f7265737300000000000000000000000000000000000000000000000000000000602082015250565b60006132a4602483612311565b91506132af82613248565b604082019050919050565b600060208201905081810360008301526132d381613297565b9050919050565b600081519050919050565b600082825260208201905092915050565b6000613301826132da565b61330b81856132e5565b935061331b818560208601612322565b6133248161234c565b840191505092915050565b600060808201905061334460008301876123ea565b61335160208301866123ea565b61335e6040830185612480565b818103606083015261337081846132f6565b905095945050505050565b60008151905061338a81612214565b92915050565b6000602082840312156133a6576133a56121de565b5b60006133b48482850161337b565b91505092915050565b7f4552433732313a206d696e7420746f20746865207a65726f2061646472657373600082015250565b60006133f3602083612311565b91506133fe826133bd565b602082019050919050565b60006020820190508181036000830152613422816133e6565b9050919050565b7f4552433732313a20746f6b656e20616c7265616479206d696e74656400000000600082015250565b600061345f601c83612311565b915061346a82613429565b602082019050919050565b6000602082019050818103600083015261348e81613452565b905091905056fea2646970667358221220804ea356045dc9eae67ffd68bad9fa237e62189132a3580e7f76080981230df264736f6c63430008140033",
  "linkReferences": {},
  "deployedLinkReferences": {}
}